:020000040000FA
:100000000C9462000C948A000C948A000C948A0070
:100010000C948A000C948A000C948A000C948A0038
:100020000C948A000C948A000C948A000C94660349
:100030000C948A000C948A000C948A000C948A0018
:100040000C94C4020C948A000C9434030C940E0398
:100050000C948A000C948A000C948A000C948A00F8
:100060000C948A000C948A000000000023002600F3
:10007000290000000000240027002A0000000000E2
:10008000250028002B0004040404040404040202D4
:100090000202020203030303030301020408102007
:1000A0004080010204081020010204081020000012
:1000B0000008000201000003040700000000000027
:1000C0000000670411241FBECFEFD8E0DEBFCDBF14
:1000D00011E0A0E0B1E0E2E4FEE002C005900D9284
:1000E000A432B107D9F721E0A4E2B1E001C01D922A
:1000F000A73FB207E1F710E0C2E6D0E004C02197C5
:10010000FE010E941907C136D107C9F70E94C40435
:100110000C941F070C940000CF92DF92EF92FF9295
:10012000DC01A03282E0B807D4F5A53BB10514F09C
:10013000A4EBB0E04091F50128E830E0241B310940
:1001400047FD3395220F331F220F331F6901330FF1
:10015000EE08FF084091F60128E532E0241B310942
:1001600047FD3395220F331F220F331F032E000C40
:10017000440B550B2C193D094E095F09B7FF02C00E
:10018000B0E0A0E00E94D40624EB30E040E050E074
:100190000E94AA06C20ED31EE41EF51ED601E091EF
:1001A000F401EC3080F52091F50188E890E0821BA5
:1001B000910927FD9395880F991F880F991FA817FC
:1001C000B90784F02091F60188E592E0821B91093D
:1001D00027FD9395880F991F880F991FA817B907B6
:1001E0000CF4CD010297880F991F4FB7F8942E2F6A
:1001F00030E0F901EE0FFF1FE20FF31FE153FE4F56
:10020000928381834FBFFF90EF90DF90CF9008954E
:1002100090E0FC01E255FF4F2491FC01E656FF4FB0
:100220003491FC01EA57FF4FE491EE23C9F02223F9
:1002300039F0233001F1A8F4213019F1223029F1ED
:10024000F0E0EE0FFF1FE458FF4FA591B4918FB778
:10025000F894EC91611126C030953E233C938FBFFA
:1002600008952730A9F02830C9F0243049F780914B
:1002700080008F7D03C0809180008F778093800005
:10028000DFCF84B58F7784BDDBCF84B58F7DFBCF87
:100290008091B0008F778093B000D2CF8091B00072
:1002A0008F7DF9CF3E2BDACFCF93DF9390E0FC0127
:1002B000E656FF4F24918A579F4FFC018491882373
:1002C000D1F090E0880F991FFC01EE58FF4FA591E7
:1002D000B491FC01E458FF4FC591D49161110EC057
:1002E0009FB7F8948C91E22FE0958E238C93288110
:1002F000E223E8839FBFDF91CF9108958FB7F894F1
:10030000EC91E22BEC938FBFF6CF3FB7F89480913E
:100310002E0190912F01A0913001B091310126B5AD
:10032000A89B05C02F3F19F00196A11DB11D3FBF2D
:10033000BA2FA92F982F8827BC01CD01620F711DFC
:10034000811D911D42E0660F771F881F991F4A95F6
:10035000D1F70895AF92BF92CF92DF92EF92FF92C2
:100360000F931F93CF93DF936C017B018B01040FDD
:10037000151FEB015E01AE18BF08C017D10759F079
:100380006991D601ED91FC910190F081E02DC601BB
:100390000995892B79F7C501DF91CF911F910F91B5
:1003A000FF90EF90DF90CF90BF90AF900895FC0149
:1003B000538D448D252F30E0842F90E0821B930BCA
:1003C000541710F0CF96089501970895FC01918D70
:1003D000828D981761F0A28DAE0FBF2FB11D5D9673
:1003E0008C91928D9F5F9F73928F90E008958FEF15
:1003F0009FEF0895FC01918D828D981731F0828DC9
:10040000E80FF11D858D90E008958FEF9FEF08951F
:10041000FC01918D228D892F90E0805C9F4F821B83
:1004200091098F739927089582E391E00E94080251
:1004300021E0892B09F420E0822F089580E090E0EC
:10044000892B29F00E94140281110C940000089558
:10045000FC01A48DA80FB92FB11DA35ABF4F2C9139
:10046000848D90E001968F739927848FA689B78930
:100470002C93A089B1898C91837080648C93938D27
:10048000848D981306C00288F389E02D80818F7DCA
:1004900080830895EF92FF920F931F93CF93DF9382
:1004A000EC0181E0888F9B8D8C8D98131AC0E889B0
:1004B000F989808185FF15C09FB7F894EE89FF897F
:1004C0006083E889F98980818370806480839FBF1D
:1004D00081E090E0DF91CF911F910F91FF90EF901D
:1004E0000895F62E0B8D10E00F5F1F4F0F7311272D
:1004F000E02E8C8D8E110CC00FB607FCFACFE88968
:10050000F989808185FFF5CFCE010E942802F1CFC5
:10051000EB8DEC0FFD2FF11DE35AFF4FF0829FB7DB
:10052000F8940B8FEA89FB8980818062CFCFCF93CB
:10053000DF93EC01888D8823B9F0AA89BB89E8890B
:10054000F9898C9185FD03C0808186FD0DC00FB6B1
:1005500007FCF7CF8C9185FFF2CF808185FFEDCF2F
:10056000CE010E942802E9CFDF91CF910895FC01CE
:1005700001900020E9F73197AF01481B590BBC01EE
:1005800082E391E00C94AA011F920F920FB60F9292
:1005900011242F933F938F939F93AF93BF93809199
:1005A0002A0190912B01A0912C01B0912D01309145
:1005B000290123E0230F2D3758F50196A11DB11D08
:1005C0002093290180932A0190932B01A0932C0161
:1005D000B0932D0180912E0190912F01A0913001B7
:1005E000B09131010196A11DB11D80932E01909310
:1005F0002F01A0933001B0933101BF91AF919F9132
:100600008F913F912F910F900FBE0F901F901895D3
:1006100026E8230F0296A11DB11DD2CF1F920F9283
:100620000FB60F9211242F933F934F935F936F93C5
:100630007F938F939F93AF93BF93EF93FF9382E347
:1006400091E00E942802FF91EF91BF91AF919F919D
:100650008F917F916F915F914F913F912F910F906B
:100660000FBE0F901F9018951F920F920FB60F920A
:1006700011242F938F939F93EF93FF93E091420167
:10068000F09143018081E0914801F091490182FDA0
:100690001BC0908180914B018F5F8F7320914C0123
:1006A000821741F0E0914B01F0E0EE5CFE4F958F38
:1006B00080934B01FF91EF919F918F912F910F901C
:1006C0000FBE0F901F9018958081F4CF1F920F924C
:1006D0000FB60F9211242F933F934F935F936F9315
:1006E0007F938F939F93AF93BF93CF93DF93EF93BA
:1006F000FF9380912401C091F301D0E087FF24C0D3
:100700001092850010928400809124018F5F809365
:10071000240180912401082E000C990B8C179D0751
:1007200024F4809124018C30C4F180918400909154
:100730008500049680349C4908F47AC08091840036
:1007400090918500049676C080912401082E000CBB
:10075000990B8C179D07C4F6E09124018E2FEE0FA4
:10076000990BFC01EE0FFF1FE80FF91FE153FE4F3D
:10077000808186FFC9CFE09124018E2FEE0F990B67
:10078000FC01EE0FFF1FE80FF91FE153FE4F8081C0
:1007900060E08F730E940801B7CF209184003091F0
:1007A0008500E09124018E2FEE0F990BFC01EE0FD6
:1007B000FF1FE80FF91FE153FE4F81819281820FE5
:1007C000931F9093890080938800E09124018E2FDD
:1007D000EE0F990BFC01EE0FFF1FE80FF91FE1531D
:1007E000FE4F808186FF11C0E09124018E2FEE0F15
:1007F000990BFC01EE0FFF1FE80FF91FE153FE4FAD
:10080000808161E08F730E940801FF91EF91DF9179
:10081000CF91BF91AF919F918F917F916F915F9198
:100820004F913F912F910F900FBE0F901F901895F1
:1008300080E49CE990938900809388008FEF8093F7
:100840002401E3CFCF92DF92EF92FF920F931F9399
:10085000E82FF92F05C0015011092109310961F173
:10086000908196239417B9F305C00150110921090D
:10087000310911F1908196239413F7CFC12CD12C1B
:10088000E12CF12C0AC08FEFC81AD80AE80AF80A3E
:100890000C151D052E053F0579F0808186238417F0
:1008A00091F36C2D7D2D8E2D9F2D1F910F91FF901B
:1008B000EF90DF90CF90089560E070E080E090E0EE
:1008C0001F910F91FF90EF90DF90CF9008951092BD
:1008D00035011092340188EE93E0A0E0B0E08093FF
:1008E000360190933701A0933801B093390184E029
:1008F00091E0909333018093320185EC90E09093E6
:100900003F0180933E0184EC90E0909341018093FD
:10091000400180EC90E0909343018093420181EC90
:1009200090E0909345018093440182EC90E0909395
:1009300047018093460186EC90E0909349018093B3
:10094000480110924B0110924C0110924D011092EF
:100950004E018091F3018C3098F491E0980F9093C0
:10096000F3018093F40190E0FC01EE0FFF1FE80F0C
:10097000F91FE153FE4F88EB9BE09283818308953A
:100980008FEF8093F4010895CF93DF93CDB7DEB757
:10099000A1970FB6F894DEBF0FBECDBF789484B593
:1009A000826084BD84B5816084BD85B5826085BD6B
:1009B00085B5816085BD80916E00816080936E00F9
:1009C00010928100809181008260809381008091EB
:1009D000810081608093810080918000816080939C
:1009E00080008091B10084608093B1008091B0005C
:1009F00081608093B00080917A00846080937A0057
:100A000080917A00826080937A0080917A00816080
:100A100080937A0080917A00806880937A001092A7
:100A2000C10060E087E00E94540161E08BE00E9419
:100A3000540161E082E00E94540160E083E00E9482
:100A4000540160E082E00E94080160E08BE00E94B7
:100A50000801E0914201F091430182E08083E0913E
:100A60003E01F0913F011082E0914001F09141017F
:100A70008FEC808310924A01E0914601F09147018A
:100A800086E08083E0914401F0914501808180619E
:100A90008083E0914401F0914501808188608083EA
:100AA000E0914401F0914501808180688083E0916C
:100AB0004401F091450180818F7D80838091F40114
:100AC0008C3008F051C061E089E00E9454018091AF
:100AD000F401282F30E0F901EE0FFF1FE20FF31FA2
:100AE000E153FE4F9081907C996090831092F501C4
:100AF0001092F6012CE0622F0E940D07829FB00138
:100B0000112430E020E0AB01420F531FFA01EE0F39
:100B1000FF1FE40FF51FE153FE4F908196FD16C0B5
:100B20002F5F3F4F2C30310571F781110FC01092AC
:100B3000800082E0809381001092850010928400F2
:100B4000B19A80916F00826080936F00E091F40110
:100B50008E2F90E0FC01EE0FFF1FE80FF91FE1530D
:100B6000FE4F8081806480832AE0422E512C612CCC
:100B7000712C30E0232E30E0332E61E082E00E94C1
:100B8000080183E290E00197F1F760E082E00E94C3
:100B90000801EDE9F0E06491E9E8F0E08491E82FE4
:100BA000F0E0EE0FFF1FE859FF4F8591949100E4AC
:100BB00012E42FE030E0462F0E94220461157105F7
:100BC0008105910529F06F5F7F4F8F4F9F4F9F7079
:100BD0002BE330E040E050E00E94AA06209325017C
:100BE00030932601409327015093280182E191E040
:100BF0000E94B702C0902501D0902601E090270105
:100C0000F0902801F7FE72C06DE282E391E00E944D
:100C10004A0222273327A9012C193D094E095F09F1
:100C200019A2CE0181967C01CA01B901A3019201EA
:100C30000E94DC06605DF70162937F01211531059A
:100C40004105510589F7E114F10419F0C7010E942B
:100C5000B7028EE191E00E94B70281E291E00E942A
:100C6000B7020E9485014B015C0184E6C82ED12C9D
:100C7000E12CF12C0E948501681979098A099B09E8
:100C8000683E734081059105A8F3F1E0CF1AD108C1
:100C9000E108F10828EE820E23E0921EA11CB11C8F
:100CA000C114D104E104F10429F780912501909148
:100CB0002601A0912701B091280189329105A10553
:100CC000B10554F160E08BE00E94080184EB90E0F4
:100CD0000E948C002114310409F44FCF0E941402A9
:100CE000882309F44ACF0E94000047CFA70196014C
:100CF00019A2CE0181967C01CA01B901A30192011A
:100D00000E94DC06605DF70162937F0121153105C9
:100D10004105510589F797CF84319105A105B105AA
:100D20003CF461E08BE00E94080190E080E0D0CFCD
:100D30009C01AD012A50310941095109A4EBB0E0F1
:100D40000E94C90624E130E040E050E00E94AA067B
:100D5000C901BECF052E97FB1EF400940E94C10668
:100D600057FD07D00E94DC0607FC03D04EF40C941C
:100D7000C10650954095309521953F4F4F4F5F4F9D
:100D8000089590958095709561957F4F8F4F9F4FF7
:100D900008950E94FE06A59F900DB49F900DA49FFC
:100DA000800D911D11240895B7FF0C94C9060E946F
:100DB000C906821B930B0895A1E21A2EAA1BBB1B26
:100DC000FD010DC0AA1FBB1FEE1FFF1FA217B30717
:100DD000E407F50720F0A21BB30BE40BF50B661F2D
:100DE000771F881F991F1A9469F7609570958095F1
:100DF00090959B01AC01BD01CF010895A29FB00168
:100E0000B39FC001A39F700D811D1124911DB29F3E
:100E1000700D811D1124911D0895991B79E004C066
:100E2000991F961708F0961B881F7A95C9F7809529
:100E30000895EE0FFF1F0590F491E02D0994F894AA
:100E4000FFCF000000004A02AA01D7019702080262
:100E5000E601FA0144697374616E6369613A2000C6
:060E6000636D000D0A00A5
:107E0000112484B714BE81FFF0D085E080938100F7
:107E100082E08093C00088E18093C10086E0809377
:107E2000C20080E18093C4008EE0C9D0259A86E02C
:107E300020E33CEF91E0309385002093840096BBD3
:107E4000B09BFECF1D9AA8958150A9F7CC24DD24C4
:107E500088248394B5E0AB2EA1E19A2EF3E0BF2EE7
:107E6000A2D0813461F49FD0082FAFD0023811F036
:107E7000013811F484E001C083E08DD089C08234E0
:107E800011F484E103C0853419F485E0A6D080C0E4
:107E9000853579F488D0E82EFF2485D0082F10E0AE
:107EA000102F00270E291F29000F111F8ED06801E7
:107EB0006FC0863521F484E090D080E0DECF843638
:107EC00009F040C070D06FD0082F6DD080E0C81688
:107ED00080E7D80618F4F601B7BEE895C0E0D1E017
:107EE00062D089930C17E1F7F0E0CF16F0E7DF06D8
:107EF00018F0F601B7BEE89568D007B600FCFDCFD4
:107F0000A601A0E0B1E02C9130E011968C91119780
:107F100090E0982F8827822B932B1296FA010C0160
:107F200087BEE89511244E5F5F4FF1E0A038BF0790
:107F300051F7F601A7BEE89507B600FCFDCF97BE46
:107F4000E89526C08437B1F42ED02DD0F82E2BD052
:107F50003CD0F601EF2C8F010F5F1F4F84911BD097
:107F6000EA94F801C1F70894C11CD11CFA94CF0C13
:107F7000D11C0EC0853739F428D08EE10CD085E9AC
:107F80000AD08FE07ACF813511F488E018D01DD067
:107F900080E101D065CF982F8091C00085FFFCCF94
:107FA0009093C60008958091C00087FFFCCF809118
:107FB000C00084FD01C0A8958091C6000895E0E648
:107FC000F0E098E1908380830895EDDF803219F02E
:107FD00088E0F5DFFFCF84E1DECF1F93182FE3DFCA
:107FE0001150E9F7F2DF1F91089580E0E8DFEE27F6
:047FF000FF270994CA
:027FFE00040479
:00000001FF
